{
  "contractName": "Lightbulb",
  "abi": [
    {
      "inputs": [],
      "payable": false,
      "stateMutability": "nonpayable",
      "type": "constructor"
    },
    {
      "constant": false,
      "inputs": [],
      "name": "change",
      "outputs": [],
      "payable": false,
      "stateMutability": "nonpayable",
      "type": "function"
    },
    {
      "constant": false,
      "inputs": [],
      "name": "get",
      "outputs": [
        {
          "name": "",
          "type": "bool"
        }
      ],
      "payable": false,
      "stateMutability": "nonpayable",
      "type": "function"
    },
    {
      "constant": false,
      "inputs": [],
      "name": "gettracker",
      "outputs": [
        {
          "name": "",
          "type": "string"
        }
      ],
      "payable": false,
      "stateMutability": "nonpayable",
      "type": "function"
    }
  ],
  "bytecode": "0x608060405234801561001057600080fd5b5060016000806101000a81548160ff0219169083151502179055506040805190810160405280600581526020017f747275636b0000000000000000000000000000000000000000000000000000008152506001908051906020019061007692919061007c565b50610121565b828054600181600116156101000203166002900490600052602060002090601f016020900481019282601f106100bd57805160ff19168380011785556100eb565b828001600101855582156100eb579182015b828111156100ea5782518255916020019190600101906100cf565b5b5090506100f891906100fc565b5090565b61011e91905b8082111561011a576000816000905550600101610102565b5090565b90565b610331806101306000396000f300608060405260043610610057576000357c0100000000000000000000000000000000000000000000000000000000900463ffffffff168063234bccf51461005c5780632ee79ded146100ec5780636d4ce63c14610103575b600080fd5b34801561006857600080fd5b50610071610132565b6040518080602001828103825283818151815260200191508051906020019080838360005b838110156100b1578082015181840152602081019050610096565b50505050905090810190601f1680156100de5780820380516001836020036101000a031916815260200191505b509250505060405180910390f35b3480156100f857600080fd5b506101016101d4565b005b34801561010f57600080fd5b5061011861024a565b604051808215151515815260200191505060405180910390f35b606060018054600181600116156101000203166002900480601f0160208091040260200160405190810160405280929190818152602001828054600181600116156101000203166002900480156101ca5780601f1061019f576101008083540402835291602001916101ca565b820191906000526020600020905b8154815290600101906020018083116101ad57829003601f168201915b5050505050905090565b6000809054906101000a900460ff16156000806101000a81548160ff0219169083151502179055506040805190810160405280600481526020017f74756e610000000000000000000000000000000000000000000000000000000081525060019080519060200190610247929190610260565b50565b60008060009054906101000a900460ff16905090565b828054600181600116156101000203166002900490600052602060002090601f016020900481019282601f106102a157805160ff19168380011785556102cf565b828001600101855582156102cf579182015b828111156102ce5782518255916020019190600101906102b3565b5b5090506102dc91906102e0565b5090565b61030291905b808211156102fe5760008160009055506001016102e6565b5090565b905600a165627a7a72305820318d81d40f12746b214a06bd3d9fbc0e639e94adce04537c37c9069a13829e900029",
  "source": "pragma solidity ^0.4.18;\n\ncontract Lightbulb {\n  bool onoff;\n  string statustracker;\n  constructor() public{\n    onoff = true;\n    statustracker = \"truck\";\n  }\n\n  function change() public {\n    onoff = !onoff;\n    statustracker = \"tuna\";\n  }\n\n  function get() public returns (bool) {\n    return onoff;\n  }\n  function gettracker() public returns (string){\n    return statustracker;\n  }\n}\n",
  "sourcePath": "/Users/Neil/Documents/simplebulb/contracts/Lightbulb.sol",
  "compiler": {
    "name": "solc",
    "version": "0.4.24+commit.e67f0147.Emscripten.clang"
  },
  "schemaVersion": "2.0.1",
  "updatedAt": "2018-07-27T21:52:09.943Z"
}